:020000040800F2
:10000000883E002061020008031600081B13000848
:10001000011600089D040008A91A0008000000004D
:10002000000000000000000000000000C9010008FE
:10003000BB040008000000000D0200084118000881
:100040007B0200087B0200087B0200087B0200089C
:100050007B0200087B0200087B0200087B0200088C
:100060007B0200087B0200087B0200087B0200087C
:100070007B0200087B0200087B0200087B0200086C
:100080007B0200087B0200087B0200087B0200085C
:100090007B0200087B0200087B020008BD04000808
:1000A0007B0200087B0200087B0200087B0200083C
:1000B0007B0200087B0200087B0200087B0200082C
:1000C0007B0200087B0200087B0200087B0200081C
:1000D0007B0200087B0200089D1A00087B020008D2
:1000E0007B0200087B0200087B02000800F002F897
:1000F00000F05AF80AA090E8000C82448344AAF168
:100100000107DA4501D100F04FF8AFF2090EBAE865
:100110000F0013F0010F18BFFB1A43F0010318473B
:10012000F0320000103300000A444FF0000C10F8C9
:10013000013B13F0070408BF10F8014B1D1108BF65
:1001400010F8015B641E05D010F8016B641E01F805
:10015000016BF9D113F0080F1EBF10F8014BAD1C55
:100160000C1B09D16D1E58BF01F801CBFAD505E073
:1001700014F8016B01F8016B6D1EF9D59142D6D3CD
:10018000704700000023002400250026103A28BFF5
:1001900078C1FBD8520728BF30C148BF0B607047F9
:1001A0001FB51FBD10B510BD00F042F91146FFF795
:1001B000F7FF01F0F5FC00F060F903B4FFF7F2FF80
:1001C00003BC00F065F90000224B19680868B0E82C
:1001D000F00F80F30988BFF36F8F4FF0000080F3BA
:1001E00011884EF00D0E70470000000006480068B0
:1001F000006880F3088862B661B6BFF34F8FBFF323
:100200006F8F00DF00BF00BF08ED00E0EFF3098053
:10021000BFF36F8F0F4B1A6820E9F00F106008B51D
:100220004FF0500080F31188BFF34F8FBFF36F8FF3
:1002300002F094F84FF0000080F31188BDE8084008
:1002400019680868B0E8F00F80F30988BFF36F8F72
:10025000704700BF24000020EFF3058070470000C6
:100260000948804709480047FEE7FEE7FEE7FEE74A
:10027000FEE7FEE7FEE7FEE7FEE7FEE70448054986
:10028000054A064B70470000B5180008ED0000084D
:1002900088380020883E0020883A0020883A0020D4
:1002A000032A40F2308010F0030C00F0158011F8A2
:1002B000013BBCF1020F624498BF11F801CB00F87A
:1002C000013B38BF11F8013BA2F1040298BF00F8CE
:1002D00001CB38BF00F8013B11F0030300F025808B
:1002E000083AC0F0088051F8043B083A51F804CBB2
:1002F000A0E80810F5E7121D5CBF51F8043B40F878
:10030000043BAFF30080D20724BF11F8013B11F882
:1003100001CB48BF11F8012B24BF00F8013B00F8C6
:1003200001CB48BF00F8012B704710B5203AC0F050
:100330000B80B1E81850203AA0E81850B1E81850E6
:10034000A0E81850BFF4F5AF5FEA027C24BFB1E823
:100350001850A0E8185044BF18C918C0BDE8104094
:100360005FEA827C24BF51F8043B40F8043B08BF9D
:100370007047D20728BF31F8023B48BF11F8012B64
:1003800028BF20F8023B48BF00F8012B70474FF010
:1003900000020429C0F0128010F0030C00F01B8052
:1003A000CCF1040CBCF1020F18BF00F8012BA8BF60
:1003B00020F8022BA1EB0C0100F00DB85FEAC17C24
:1003C00024BF00F8012B00F8012B48BF00F8012BD7
:1003D00070474FF0000200B5134694469646203908
:1003E00022BFA0E80C50A0E80C50B1F12001BFF4EE
:1003F000F7AF090728BFA0E80C5048BF0CC05DF854
:1004000004EB890028BF40F8042B08BF704748BFA1
:1004100020F8022B11F0804F18BF00F8012B704715
:100420007047704770470000004870472838002028
:100430007546FFF7F9FFAE4605006946534620F0C2
:100440000700854618B020B5FFF718FFBDE820402B
:100450004FF000064FF000074FF000084FF0000B80
:1004600021F00701AC46ACE8C009ACE8C009ACE833
:10047000C009ACE8C0098D46704710B50446AFF31B
:1004800000802046BDE81040FFF797BE704700008F
:1004900001491820ABBEFEE726000200FEE710B5BA
:1004A000801CC4B2102040EA141001F0A5F904F039
:1004B0000F00BDE8104001F09FB97047202000F008
:1004C00091B872B6FEE710B590F82110002202290B
:1004D00005D00421816380F82020012010BD01682F
:1004E0000B6823F00E030B6001680B6823F0010317
:1004F0000B6090F84030C46B012101FA03F3636094
:1005000080F8211080F82020104610BD10B590F81A
:1005100021100024022903D00421816301243DE03D
:1005200001680A6822F00E020A6001680A6822F077
:1005300001020A601A4A0168914201D1012121E0B9
:10054000174A1432914201D110211BE0144A28327B
:10055000914201D1891515E0114A3C32914201D1F5
:1005600089140FE00E4A5032914202D14FF480318B
:1005700008E00B4A6432914202D14FF4801101E04D
:100580004FF08071064A083A5160012180F821102D
:10059000002180F82010416B01B18847204610BD32
:1005A0000800024010B5202815D14FF47A7001F0F0
:1005B0008CFA2021084800F011F900280BD10848D6
:1005C0000649B0F9002001EBC20189780180BDE83D
:1005D000104001F01BBB10BD000C0140900000203A
:1005E00086000020044910B50A68024202D0086063
:1005F000FFF7D8FF10BD0000140401402DE9F84FAB
:10060000DFF8B891002409F1040A0AF1040B23462B
:100610000F270BF1040EC9E00125A5402A40AA428C
:100620007DD1674ED1F804C0ACEB0608B44532D09A
:1006300014DCBCF1030F3AD009DCBCF1000F2AD066
:10064000BCF1010F1CD0BCF1020F31D11DE0BCF197
:10065000110F17D0BCF1120F2AD119E0B8F5881F7D
:1006600019D006DCB8F5803F15D0B8F5801F1FD132
:1006700011E0B8F5001F0ED0B8F5041F18D10AE03C
:10068000CB6815E0CB681B1D12E0CB6808330FE088
:10069000CB680C330CE08B682BB1012B4FF00803B7
:1006A00003D0456104E0042302E0056100E000237B
:1006B000FF2A01D8064601E000F104064FEA84054E
:1006C00001D9A5F12005D6F8008007FA05FC28EA33
:1006D0000C0803FA05F548EA0508C6F800804D68DD
:1006E000ED0062D5374DAE6946F00106AE61AD69E9
:1006F00024F0030605F001050095334D06EB050CCB
:10070000DCF80850A607360F07FA06F825EA0805B0
:10071000DFF8B880404503D14FF0000817E044E00F
:10072000DFF8AC80404502D14FF001080FE0DFF860
:10073000A480404502D14FF0020808E0DFF898801D
:10074000404502D14FF0030801E04FF0040808FAD9
:1007500006F848EA0508CCF808804D68D9F800602A
:10076000ED034D4601D5164300E096432E604D68DB
:10077000DAF80060AD03554601D5164300E0964314
:100780002E604D68DBF80060ED025D4601D5164332
:1007900000E096432E604D68DEF80060AD027546BD
:1007A00001D5164300E096432E60641C0D682A466E
:1007B000E5407FF431AFBDE8F88F00000004014050
:1007C000000011100010024000000140000801402C
:1007D000000C0140001001400014014080680840F6
:1007E00000D0012070470AB1016170470904FBE79E
:1007F00001488068704700001400002002488168AA
:10080000027811448160704714000020074810B539
:10081000016841F010010160032000F07BF80F2017
:1008200000F006F800F024F8002010BD002002407F
:1008300070B50D4D04464FF47A712878B1FBF0F095
:100840000A490968B1FBF0F000F0F2FA48B9102C3F
:1008500007D200222146501E00F03CF800206C60B8
:1008600070BD012070BD0000140000202000002099
:100870000F4808B5816941F001018161816901F08A
:1008800001010091C16941F08051C161C06900223C
:1008900000F0805000900F21901E00F01BF80548DA
:1008A000416821F0E06141F08061416008BD0000D5
:1008B0000010024000000140002809DB00F01F0288
:1008C000012191404009800000F1E020C0F80011B2
:1008D00070470000F0B40E4B1B680C46C3F30223B4
:1008E000C3F10705042D00D90425191D072901D2DC
:1008F000002300E0DB1E012606FA05F1491E214017
:1009000099409E40761E16403143F0BC01F0CDB8B0
:100910000CED00E0064900F0070208684FF6FF03FF
:10092000184040EA0220034A104308607047000064
:100930000CED00E00000FA052DE9F0470F46050038
:1009400061D0434E306800F00700B84209D23068E9
:1009500020F0070038433060306800F00700B842EC
:1009600051D128683B4C810712D5400703D56068F8
:1009700040F4E06060602878000703D5606840F4C8
:10098000605060606068A96820F0F0000843606013
:100990002878C00728D06868012810D0216802286C
:1009A00010D0890700292EDA616821F00301014384
:1009B0006160FFF71DFF804641F288390DE0216834
:1009C0008903EFE78901EDE7FFF712FFA0EB0801CC
:1009D000494502D90320BDE8F0876068696800F0E6
:1009E0000C00B0EB810FEFD1306800F00700B84287
:1009F0000BD9306820F0070038433060306800F0D1
:100A00000700B84201D00120E5E72878400705D566
:100A10006068E96820F4E0600843606028780007B7
:100A200006D56068296920F4605040EAC100606022
:100A300000F038F86168084AC1F30311515CC840FE
:100A40000649086006480068FFF7F2FE0020C2E78A
:100A500000200240001002401C2700082000002057
:100A6000180000200448054900684968044AC1F399
:100A70000221515CC8407047200000200010024055
:100A80002C2700080448054900684968044AC1F356
:100A9000C221515CC8407047200000200010024075
:100AA0002C27000812A185B00FC98DE80F0014A0F3
:100AB000144A006804905168134801F00C03042B99
:100AC00010D0082B0ED1C1F38343C9031DF80300D6
:100AD0000AD5516804AAC1F34041515C0A4A504307
:100AE000B0FBF1F005B0704708494843FAE7000051
:100AF00002030405060708090A0B0C0D0E0F10105F
:100B0000010200000010024000127A0000093D00BE
:100B10002DE9F84F040070D02078C04DC00749D0AF
:100B20006868C0F38100012807D06868C0F38100BD
:100B3000022809D16868C00306D52868800339D522
:100B400060680028E7D035E06068B0F5803F0BD0E2
:100B500010B1B0F5A02F11D0286820F480302860A3
:100B6000286820F4802002E0286840F48030286063
:100B7000606890B1FFF73CFE06460AE0286840F442
:100B800080202860F0E700BFFFF732FE801B64285A
:100B900073D828688003F7D50CE0FFF729FE0646D6
:100BA00005E000BFFFF724FE801B6428F0D828680A
:100BB0008003F7D420789A4E80074FF001094FF058
:100BC000000839D5686810F00C0F07D06868C0F3CA
:100BD0008100022809D16868C00306D4286880070C
:100BE00014D52069012808D110E02069B0B1C6F8F9
:100BF0000090FFF7FDFD074605E00AE1FFF7F8FD6D
:100C0000C01B0228C4D828688007F7D52868616906
:100C100020F0F80040EAC10028600DE0C6F800802E
:100C2000FFF7E6FD074604E0FFF7E2FDC01B0228E0
:100C300023D828688007F7D4207800072CD5794876
:100C4000A169D9B1C0F80090FFF7D2FD074604E0D2
:100C5000FFF7CEFDC01B02280FD8686A8007F7D5C2
:100C600071484FF4FA510068B0FBF1F0009000BFFA
:100C70000098411E0091FAD20EE080E0C0F800809A
:100C8000FFF7B6FD074604E0FFF7B2FDC01B0228E0
:100C900075D8686A8007F7D42078400760D5E8697E
:100CA0000027C00008D4E86940F08050E861E86996
:100CB000012700F0805000905C480168C90513D4FA
:100CC0000168834641F480710160FFF791FD82461F
:100CD00006E000BFFFF78CFDA0EB0A0064284ED8A9
:100CE000DBF80000C005F5D5E06801280AD008B19E
:100CF000052813D0286A20F001002862286A20F015
:100D0000040002E0286A40F001002862E06841F235
:100D1000883B98B1FFF76CFD82460BE0286A40F0F3
:100D200004002862EEE700BFFFF762FDA0EB0A01B6
:100D300059455AD8286A8007F6D50CE0FFF758FDC8
:100D4000824605E0FFF754FDA0EB0A0159454CD857
:100D5000286A8007F6D41FB1E86920F08050E86166
:100D6000E06988B36968C1F38101022944D002288F
:100D7000C6F8608004D0FFF73BFD044638E034E05D
:100D8000FFF736FD074604E0FFF732FDC01B0228DF
:100D90002BD828688001F7D4206AB0F5803F05D1B0
:100DA0006868A16820F4003008436860D4E908014D
:100DB0000843696821F4741108436860C6F86090BC
:100DC000FFF716FD044606E025E000BFFFF710FD23
:100DD000001B022809D828688001F7D51BE000BF56
:100DE000FFF706FD001B022802D90320BDE8F88F9B
:100DF00028688001F4D40EE00128F7D06868226AE0
:100E000000F48031914204D1616A00F4701088428C
:100E100001D00120EAE70020E8E7000000100240CE
:100E20000000424280044242200000200070004046
:100E300010B5401EB0F1807F01D3012010BD4FF0EE
:100E4000E02460610F21601700F02FFE0020A061F8
:100E500007202061002010BD70477047F8B5026878
:100E600004461068D168536910F00F0F4FF0000569
:100E700054D003F0010601F4907737435FD0C207E6
:100E800005D0CA0503D5226C42F001022264420754
:100E900005D5DA0703D0226C42F0020222648207F1
:100EA00005D5DA0703D0226C42F00402226402075F
:100EB00007D501F02002324303D0226C42F0080231
:100EC0002264226C002A35D0800604D5880602D51B
:100ED000204600F010FD20684069216CC0F38010AE
:100EE00001F008010143204625D000F0ECFC206809
:100EF000416949061BD5416921F040014161A06B60
:100F0000A8B158494163A06BFFF700FB002811D03E
:100F1000A06B416B01B0BDE8F040084783060ED5D9
:100F20008B060CD52046BDE8F84000F0E4BC204616
:100F3000FFF793FFF8BDFFF790FF2564F8BD266B20
:100F40002023012E52D1C60650D5CE064ED51068AC
:100F500050680090506940062AD5A16B0868406827
:100F60000004000CEAD0A68D8642E7D9E0858869A6
:100F7000202818D0D06820F48070D06020684169A3
:100F800021F0010141612068416921F04001416186
:100F900084F83E3025632068C16821F01001C160EB
:100FA000A06BFFF790FAA08DE18D401A81B219E095
:100FB000A08DE18D401A81B2E08D0028BED00029BD
:100FC000BCD0D06820F49070D0602068426922F0D4
:100FD0000102426184F83E3025632068C26822F035
:100FE0001002C2602046FFF737FFF8BD05062BD57B
:100FF0000D0629D594F83D002128F6D1A068B0F55A
:10100000805F01D12069B0B1206A411C2162216852
:1010100000784860E08C401E0004000CE084E4D1BD
:101020002068C16821F08001C1602068C16841F07A
:101030004001C160F8BD206A0088C0F3080050601C
:10104000206A801C2062E5E74006F3D54806F1D50A
:10105000D168204621F04001D16084F83D3000F095
:101060005BF9F8BDB718000870B5040004D094F817
:101070003D00002510B106E0012070BD84F83C5011
:10108000204600F023F8242084F83D002068C16841
:1010900021F40051C160204600F088FC20680169FD
:1010A00021F4904101612068416921F02A014161E8
:1010B0002068C16841F40051C1602564202084F893
:1010C0003D0084F83E00002070BD0000F0B585B002
:1010D000002400940194029403940368394F022081
:1010E00039490322394D4602BB421AD18B6943F478
:1010F00080438B618B6903F4804304938B6943F0D5
:1011000004038B618969039201F0040104910102D7
:10111000CDE9001069462846FFF770FACDE9006472
:101120004AE02B4FBB4229D1CB6943F40033CB615A
:10113000CB6903F4003304938B6943F004038B61A0
:101140008969039201F0040104910421CDE90010A2
:1011500069462846FFF752FA0820CDE9000469469F
:1011600028460294FFF74AFA002205212620FFF7BD
:10117000B1FB2620FFF7A0FB05B0F0BD154DAB423B
:10118000FAD1CB6943F48023CB61CB6903F480238C
:1011900004938B6943F008038B6189690E4D01F05C
:1011A0000801CDE90321CDE9006069462846FFF733
:1011B00025FAE814CDE90004694628460294FFF7B1
:1011C0001DFAD9E700380140001002400008014034
:1011D0000044004000480040000C014090F83E30C0
:1011E000202B0ED159B152B190F83C30012B08D0D0
:1011F000012380F83C300023036300F033BC01205E
:1012000070470220704700002DE9F04105463C4838
:1012100000264FF4FA78854213D13B493948D1F87A
:10122000F42100788854D1F8F401404502D2401CE2
:10123000C1F8F401C1F8F861012232493048FFF7E2
:10124000CDFF2F484430854226D12E482F4C001D1B
:101250000078242801D1C4F8F461D4F8F411605462
:10126000D4F8F4717F1CC4F8F4712178242907D1D3
:1012700021794D2904D16179432901D10A2828D047
:10128000C82F02D3C820C4F8F4011E491C4801220B
:10129000091D4430FFF7A2FF1948883085422CD140
:1012A0001848083001781A48D0F8F4218154D0F851
:1012B000F411414502D2491CC0F8F411C0F8F8619C
:1012C000BDE8F0410F490E48012208318830FFF790
:1012D00085BF50210F48FFF75AF83A460B490D4891
:1012E000FEF7DEFF0B49012081F85000C8210748B6
:1012F000C4F8F461FFF76DF8C7E7BDE8F0810000BE
:10130000D409002008000020D4030020D4050020C8
:10131000D4070020A83700207047FEE770B50122EF
:10132000114DD40221462846FFF75DFA012000F056
:10133000CCFB0122160331462846FFF754FA012060
:1013400000F0C3FB002221462846FFF74CFA032099
:1013500000F0BBFB002231462846FFF744FABDE807
:101360007040782000F020B80008014070B50D4DA5
:101370004FF40064002221462846FFF734FA01208A
:1013800000F0A3FB012211032846FFF72CFA0320EB
:1013900000F09BFB21462846BDE870400122FFF784
:1013A00022BA0000000801402DE9F041234F044615
:1013B00000254FF400684FF480560022314638462D
:1013C000FFF711FA200601D4002200E00122414675
:1013D0003846FFF708FA6006040E012000F075FB9E
:1013E000012231463846FFF7FEF9012000F06DFB7F
:1013F0006D1CEDB2082DE0D3002231463846FFF7D0
:10140000F2F9012000F061FB012241463846FFF766
:10141000EAF9012000F059FB012231463846FFF776
:10142000E2F9012000F051FB002231463846FFF777
:10143000DAF9BDE8F041012000F047BB00080140A7
:101440004FF47A74204600F001FCFBE710B58EB033
:101450001C220B496846FEF768FF0021684600F031
:1014600001FC084C06491C2220601C3107A8FEF72D
:101470005CFF002107A800F0F5FB60600EB010BD16
:10148000E4260008000000202DE9F04385B0002488
:1014900026480094019402940394816941F0040168
:1014A0008161816901F004010491816941F00801C1
:1014B00081618069DFF8788000F0080041F610054E
:1014C0000490002229464046FFF78DF9DFF864902A
:1014D00043F2C107002239464846FFF784F90095D8
:1014E000022601250396CDE9015469464046FFF7DF
:1014F00085F8202000901048CDE901046946404657
:10150000FFF77CF800970396CDE9015469464846F9
:10151000FFF774F8002205211720FFF7DBF91720E9
:10152000FFF7CAF905B0BDE8F083000000100240E3
:1015300000080140000C0140000021100C4810B5CB
:101540000A4901604FF4E1314160002181600C22C1
:10155000C160C0E904128161C161FFF785FD002807
:1015600003D0BDE81040FEF7ACBF10BD003801400D
:10157000D4090020124810B5104901604FF41651EB
:101580004160002181600C22C160C0E904128161C8
:10159000C161FFF769FD08B1FEF793FF0022052145
:1015A0002620FFF797F92620FFF786F9BDE81040BF
:1015B000012204490248FFF711BE00000044004028
:1015C000180A00200C0000200C4810B50A490160E0
:1015D0004FF4E1314160002181600C22C160C0E91B
:1015E00004128161C161FFF73FFD002803D0BDE80F
:1015F0001040FEF766BF10BD004800405C0A0020A6
:10160000FEE7FEE730B40021084B0A465FF0000019
:1016100003EB8014401CC0B262548028F8D3491CEC
:10162000C9B20829F2D330BC00F01AB890170020D4
:1016300010B57F2811D83F290FD8CB0801F007013A
:1016400001248C40E1B2054C002A04EB8010C25CFE
:1016500001D00A4300E08A43C25410BD9017002015
:1016600070B50B4E0024204600F0E2F80020FEF793
:1016700016FF002506EB8510005D00F0CBF86D1C11
:10168000EDB2802DF6D3641CE4B2082CEBD370BD10
:10169000901700202DE9FF4F203A1F460C4689463F
:1016A00002F0FF0A0025DDF834B032E00C2F09D03B
:1016B0001A4901EB0A104FF00008465D300607D5C5
:1016C0005A4609E016490AEB4A0001EB8000F2E7AE
:1016D000BBF1000F12D0002221460098FFF7A8FFAF
:1016E0007006641C060EE4B2A4EB0900B84207D1F0
:1016F00000984C46401CC0B2009008E00122EBE785
:1017000008F1010000F0FF08B8F1080FD6D36D1CF6
:10171000EDB2BD42CAD3BDE8FF8F0000A82B000880
:10172000342700082DE9FF4F81B00024DDF838A0F0
:101730001D469346814626464FF001084FEA5A0758
:1017400027E0281B401EC1B20A2000F077FABBFB3D
:10175000F0F00A21B0FBF1F201FB120026B9691E7C
:101760008C4201DA48B101263030C2B207FB049046
:10177000C0B25346CDF8008006E007FB0490C0B22B
:1017800053462022CDF800800299FFF783FF641CA6
:10179000E4B2AC42D5D305B0BDE8F08FF8B516463B
:1017A0000D460446012714E07A2C02D90024103596
:1017B000EDB23A2D03D900242546FFF723FF009709
:1017C0003278102329462046FFF764FF0834E4B23C
:1017D000761C30780028E7D1F8BD000070B5054DC3
:1017E0000024285D00F008F8641CE4B2192CF8D33A
:1017F00070BD0000D833000810B50446FFF78EFD19
:101800000020FFF7D1FD2046FFF7CEFDBDE81040D8
:10181000FFF7ACBD10B50446FFF780FD4020FFF791
:10182000C3FD2046FFF7C0FDBDE81040FFF79EBD99
:10183000B030C0B2FFF7E0BF012000F007FAFBE7CD
:1018400010B5FEF7DBFF00F079FE012803D0BDE8FC
:10185000104000F005BE10BD30B58FB0282168469D
:10186000FEF7B7FD14210AA8FEF7B3FD02250120FB
:10187000049000951020059000244FF46010CDE9ED
:10188000084007956846FFF743F908B172B6FEE7CE
:101890000F20CDE90A054FF48060CDE90C4002210C
:1018A0000AA80E94FFF748F8002801D072B6FEE7A8
:1018B0000FB030BD704710B5406A0021C185C184AA
:1018C000FFF7CBFA10BD0168CA6822F49072CA60B3
:1018D00001684A6922F001024A61016B012904D1C1
:1018E0000168CA6822F01002CA60202180F83E1008
:1018F00000210163704708B590F83E10222901D0FD
:10190000022008BD82684FF480539A4201D10169D8
:1019100021B1816A9A421BD04AB10AE00268816A09
:101920005268C2F308020A80816A891C08E00269D1
:1019300072B10268526802F07F020A70816A491C23
:101940008162C18D491E0904090CC18503D019E0CB
:1019500002685268F1E70168CA6822F02002CA6092
:101960000168CA6822F48072CA6001684A6922F07C
:1019700001024A61202180F83E10016B012903D049
:10198000FFF742FC002008BD002101630168CA681E
:1019900022F01002CA6001680A68D20602D50A68FD
:1019A00049680091818DFFF757FAEBE770B504465F
:1019B00000680169E26821F4405111430161216925
:1019C000A0680843616908432168CA6841F20C6352
:1019D0009A430243CA6020684169A26921F44071B8
:1019E000114341611E492068884202D1FFF74AF83D
:1019F00001E0FFF737F800EBC00101EB001260686F
:101A000064218000B2FBF0F3B3FBF1F36FF0180632
:101A10007343B2FBF0F5B2FBF0F605EB830532231E
:101A200003EB0515B5FBF1F5B6FBF1F605F0F00596
:101A300005EB0615B2FBF0F6B2FBF0F0B0FBF1F0EF
:101A40006FF01802504306EB800003EB0010B0FB70
:101A5000F1F0216800F00F002844886070BD00009C
:101A60000038014081628285C28500210164222202
:101A700080F83E2080F83C100168CA6842F4807209
:101A8000CA6001684A6942F001024A610068C1689F
:101A900041F02001C1600020704700000148FFF7BD
:101AA000DDB90000180A0020FEE70907090E00282A
:101AB00004DB00F1E02080F80014704700F00F0014
:101AC00000F1E02080F8141D70470101002001E0C2
:101AD00000BF401C8842FBD37047704738B50EA248
:101AE0000A210F20FFF75AFE1024022301220A21A7
:101AF00019200094FFF716FE022319211A46084602
:101B00000094FFF70FFE02230322282119200094DE
:101B1000FFF708FE38BD00003E0000007047704728
:101B200038B50EA219210F20FFF738FE102402232A
:101B300001220A2119200094FFF7F4FD0223192144
:101B40001A4608460094FFF7EDFD022303222821E0
:101B500019200094FFF7E6FD38BD00003E000000AC
:101B600038B50EA228210F20FFF718FE10240223FB
:101B700001220A2119200094FFF7D4FD0223192124
:101B80001A4608460094FFF7CDFD022303222821C0
:101B900019200094FFF7C6FD38BD00003E0000008C
:101BA0001CB5FEF733FEFFF757FEFFF76DFCFFF79E
:101BB000C5FCFFF7DFFCFFF707FDFFF70FFEFFF7A0
:101BC00021FD012210210A48FEF70DFE002101200F
:101BD000CDE900010B464FF4FA7206A1074800F068
:101BE00055FC00F07DFBFFF731FC00F036F8FEE716
:101BF000000801405461736B203100008922000805
:101C000001460020842900D0C81C704710B50A483E
:101C1000A0F10C04B4F9021000EBC1004068A06010
:101C2000FFF7F0FCA0688047FFF71AFD608820806E
:101C3000BDE81040FFF714BD9000002002460120CF
:101C400000E05043491EC9B2FBD2704710B500B93D
:101C5000012000F01FFB002010BD10B500F040FB7C
:101C6000002010BD7FB50D4604464169B0F908005B
:101C700081B1A16971B1FFF7C3FFD4E905128DE805
:101C80000700D4E900102B46226900F02CFC0390D9
:101C900004B070BDFFF7B4FF03A9CDE90001208AAD
:101CA0002B4682B2D4E9001000F0F0FB012801D0ED
:101CB0000020EDE70398EBE72DE9F041184C0F46C3
:101CC000054666692068001D00F018FA38B92068DA
:101CD00090F82C1001208840A1698143A161681C03
:101CE00007D137B12168BDE8F0410E48091D00F069
:101CF0004ABA20683544B5424560216805D2A068DB
:101D0000BDE8F041091D00F026BA6068091D00F029
:101D100022FA206B854200D22563BDE8F0810000E5
:101D2000240000207C0B00202DE9F041054600F046
:101D300037FA2E4C2069401C206120682C4F10B1CE
:101D4000E06940B32DE025602069012829D10026F3
:101D500006EB860007EB800000F0EFF9761C072EFB
:101D6000F6D323488C3000F0E8F92148A03000F089
:101D7000E4F91F48B43000F0E0F91D48C83000F025
:101D8000DCF91B48DC3000F0D8F919488C30606071
:101D90001430A06005E02068E96AC06A884200D873
:101DA0002560E06A401CE062E96A0120A26988407F
:101DB0001043A06101EB810007EB8000291D00F0BA
:101DC000E2F900F00DFAE06900280CD02068E96A19
:101DD000C06A884207D207494FF080500860BFF3BD
:101DE0004F8FBFF36F8FBDE8F0810000240000200B
:101DF000A00A002004ED00E010B5044690F8510060
:101E000058B101280CD002280FD0502080F311883F
:101E1000BFF34F8FBFF36F8FFEE7206B00F0F4F935
:101E20002046BDE8104000F0EFB910BD10484FF457
:101E30004061420706D0C01D0D4920F00700411A3D
:101E4000C1F540610B4A00230144C2E9000308398F
:101E5000103A21F0070111604B600B600B1AC0E9CA
:101E6000001393604FF000405360D0607047000053
:101E7000900B002070000020154E164CA6F1C807EC
:101E80004FF08058DFF8509012E000BF00F088F962
:101E9000F068C568281D00F031F92069401E2061F6
:101EA000E068401EE06000F09BF92846FFF7A4FFC1
:101EB000E0680028EAD13868012805D9C9F800800F
:101EC000BFF34F8FBFF36F8F00F036F9F0E70000DC
:101ED000680B00202400002004ED00E02DE9F0470D
:101EE0009A46DDE9098481466FF00303206B03EB1A
:101EF00082021044089D20F00706700707D050208A
:101F000080F31188BFF34F8FBFF36F8FFEE7231865
:101F10000A5C83F834200A5C12B1401C1028F6D306
:101F2000002784F84370072D00D30625E562C4E935
:101F30001157201D00F00CF904F1180000F008F909
:101F40002461C5F107006462A061E76484F8507001
:101F500052464946304600F0BFF82060B8F1000F05
:101F600001D0C8F80040BDE8F087000030B5114945
:101F700000E011460A688242FBD34B685C18844239
:101F800003D1406818444860084643681C189442CE
:101F900009D1084C103C2468A24209D052681A4466
:101FA00042600A6812680260814200D0086030BD59
:101FB0000460F9E77000002006484168096829B10B
:101FC0004168C968C9684968016370474FF0FF31CB
:101FD000FAE700002400002008484068401C4FF049
:101FE000500080F3118804D0BFF34F8FBFF36F8F81
:101FF000FEE7BFF34F8FBFF36F8FFEE7780000203F
:102000002DE9F0410546002700F0A0F9314E306877
:1020100008B9FFF70BFFF06805424BD1C5B308358F
:1020200068070ED005F00700C0F1080005446807F6
:1020300007D0502080F31188BFF34F8FBFF36F8F0D
:10204000FEE72DB37068854234D82248103001462F
:102050000C6801E020460C466168A94202D2216862
:102060000029F7D131688C4224D0076821680160CB
:1020700060680837411B10290FD96019420708D042
:10208000502080F31188BFF34F8FBFF36F8FFEE7AF
:1020900010E041606560FFF769FF61687068401A91
:1020A0007060B268904200D2B060F06801430020D6
:1020B000C4E9000100F0B4FA780707D0502080F39B
:1020C0001188BFF34F8FBFF36F8FFEE73846BDE82F
:1020D000F08100006000002010B5031F4FF08074F5
:1020E0001C601B1F21F001011960191F024B0B60BE
:1020F000143940380A6010BDD91F0008D0E90132F8
:1021000001699A60D0E901235A604A68824201D18C
:1021100082684A60002202610868401E0860086800
:1021200070470000034B036003F1540008608020F7
:102130001060704780010020704700F108014FF0E7
:10214000FF32C0E90112C1600161002101607047E6
:1021500000210161704730B50B685A1C02D000F1B4
:10216000080202E0026904E02246546825689D42A4
:10217000FAD953684B6099608A60516008610168C0
:10218000491C016030BD42684A6093688B60936867
:102190005960916008610168491C01607047000046
:1021A000502080F31188BFF34F8FBFF36F8F0A4920
:1021B0004868401C486001280CD10848006810F0AD
:1021C000FF0F07D0502080F31188BFF34F8FBFF36C
:1021D0006F8FFEE7704700007800002004ED00E0FC
:1021E0000849486828B1401E486001D180F3118831
:1021F0007047502080F31188BFF34F8FBFF36F8F6C
:10220000FEE700007800002070B5002827D0144DAC
:10221000A0F108046168E868014207D1502080F30A
:102220001188BFF34F8FBFF36F8FFEE722683AB17B
:10223000502080F31188BFF34F8FBFF36F8FFEE7FD
:102240008143616000F082F86068696808446860F2
:102250002046FFF78BFEBDE8704000F0E1B970BD8D
:10226000600000204FF0E0200021016181610549FC
:102270004FF47A720968B1FBF2F1491E41610721FE
:1022800001617047200000204FF448742046FFF79A
:10229000DDFCFBE710B5020014D00F48806B38B1AD
:1022A000502080F31188BFF34F8FBFF36F8FFEE78D
:1022B00000F04CF800211046FFF7FEFC00F0B0F9EA
:1022C000002807D105494FF080500860BFF34F8FB9
:1022D000BFF36F8F10BD00002400002004ED00E06C
:1022E00010B586B00024039405AA04A903A8049499
:1022F000FFF718FFDDE903010094CDE90110002389
:102300000EA11048059A00F0EEF80F490028486326
:1023100011D0502080F31188BFF34F8FBFF36F8F20
:102320004FF0FF3008630120C8614C6106B0BDE882
:10233000104000F041B806B010BD000049444C45C3
:1023400000000000791E0008240000200248816B74
:10235000491C816370470000240000201448816BF1
:1023600011B1012141627047002141628169B1FAD6
:1023700081F1C1F11F0101EB81020E4951F82230B8
:102380006BB101EB820101F108034A6852684A60AF
:102390009A4201D152684A60D1680160704750206A
:1023A00080F31188BFF34F8FBFF36F8FFEE70000FC
:1023B00024000020A00A00201CB5264908780190BE
:1023C000FF20087008788DF800009DF800009DF847
:1023D000002000F0F000904207D0502080F31188D8
:1023E000BFF34F8FBFF36F8FFEE79DF800001A4BCE
:1023F00000F0500018700720986005E09DF800205C
:1024000052008DF80020401E9DF800201206F5D4E1
:102410009860032807D0502080F31188BFF34F8FB6
:10242000BFF36F8FFEE74FF440709860019808701B
:102430000A48016841F470010160016841F070418F
:102440000160FFF70FFF00205860FDF7CFFE00206E
:102450001CBD000000E400E07800002020ED00E05A
:1024600010B5502080F31188BFF34F8FBFF36F8FEB
:1024700000F072F818B104494FF080500860002055
:1024800080F3118810BD000004ED00E02DE9FF5F2E
:102490008346DDE90E87994616468A469000FFF787
:1024A000AFFD05001CD05420FFF7AAFD040014D096
:1024B0000020256384F85100CDE90240CDE9008772
:1024C0004B46324651465846FFF708FD2046FFF777
:1024D0002BFC012004B0BDE8F09F2846FFF794FED6
:1024E0004FF0FF30F6E7F0B585B0DDE90B640A9DEB
:1024F000A6B1DCB1542700972663022684F8516008
:10250000002604AFCDE90246CDE90057FFF7E6FC0F
:102510002046FFF709FC049805B0F0BD502080F379
:102520001188BFF34F8FBFF36F8FFEE7502080F30A
:102530001188BFF34F8FBFF36F8FFEE70548C16966
:1025400019B1806B18B1002070470120704702203C
:1025500070470000240000202DE9F0412E4C002798
:10256000A06B40B1206A401C2062606A00B1012764
:102570003846BDE8F0816669761C666113D16068F3
:10258000006838B1502080F31188BFF34F8FBFF33C
:102590006F8FFEE76068A1686160A060A06A401C60
:1025A000A062FFF709FD206BDFF87080864209D337
:1025B0006068006880B16068C068C5686868864205
:1025C0000DD220632068C06A00EB800158F821001A
:1025D0000128CAD90127C8E74FF0FF30F1E7281DCD
:1025E000FFF78CFDA86A18B105F11800FFF786FD0A
:1025F000E86A0121A26981401143A16100EB8001D9
:1026000008EB8100291DFFF7BEFDE86A2168C96A51
:102610008842CDD30127CBE724000020A00A002068
:102620002DE9F0472C4D00242746A86B38B1FFF761
:10263000B7FDA86B401EA863A86B40B146E05020D0
:1026400080F31188BFF34F8FBFF36F8FFEE72969C7
:10265000224E0120D1B3A6F1B40980463068E8B11A
:10266000F068C46804F11800FFF748FD201DFFF76B
:1026700045FDE06AAA6908FA00F11143A96100EB7F
:10268000800109EB8100211DFFF77DFDE06A2968CB
:10269000C96A8842E2D3C5F82480DFE70CB1FFF7AE
:1026A0008BFC2C6A44B14646FFF756FF00B16E62C0
:1026B000641EF9D100202862686A38B108490127F0
:1026C00038070860BFF34F8FBFF36F8FFFF788FDA8
:1026D0003846BDE8F087000024000020540B00209D
:1026E00004ED00E004340008391800080000000080
:1026F000000000008000000000000000000000005A
:10270000F433000841140008FEFF00000000000040
:102710008000000000000000000000000000000039
:102720000000000001020304060708090000000081
:10273000010203040000000000000000000000008F
:10274000000000003F4000000000000000003000DA
:10275000400030004000000009000BC03D000BC0ED
:102760003D00090018C024407FE022403180000075
:10277000180024C01B000D803240018003801C40E3
:1027800027401C800740004010006000000000004F
:10279000000000000000000000001F8020404020DA
:1027A0000000402020401F800000000009000600BB
:1027B0001F80060009000000040004003F800400A0
:1027C0000400000000100060000000000000000095
:1027D00004000400040004000400000000000040A5
:1027E0000000000000000000002001C006003800CA
:1027F000400000001F802040204020401F8000003B
:10280000000010403FC000400000000018C0214000
:1028100022402440184000001080204024402440E2
:102820001B80000002000D0011003FC001400000AD
:102830003C80244024402440238000001F8024400A
:1028400024403440038000003000200027C03800BE
:10285000200000001B802440244024401B800000F6
:102860001C0022C0224022401F8000000000000007
:1028700008400000000000000000000004600000AC
:1028800000000000000004000A0011002080404009
:10289000090009000900090009000000000040408B
:1028A000208011000A0004001800200023402400AA
:1028B000180000001F802040274029401F400000D2
:1028C000004007C039000F0001C0004020403FC059
:1028D000244024401B8000001F80204020402040D6
:1028E0003080000020403FC0204020401F8000007A
:1028F00020403FC024402E4030C0000020403FC058
:1029000024402E00300000000F00108020402240A4
:102910003380020020403FC0040004003FC020403C
:10292000204020403FC02040204000000060202088
:1029300020203FC02000200020403FC024400B004A
:1029400030C0204020403FC020400040004000C038
:102950003FC03C0003C03C003FC0000020403FC0DF
:102960000C4023003FC020001F802040204020401A
:102970001F80000020403FC02440240018000000B9
:102980001F802140214020E01FA0000020403FC0C8
:102990002440260019C0004018C024402440224092
:1029A00031800000300020403FC020403000000057
:1029B00020003F80004000403F80200020003E007B
:1029C00001C0070038002000380007C03C0007C0E5
:1029D00038000000204039C0060039C02040000007
:1029E0002000384007C0384020000000304021C09F
:1029F0002640384020C00000000000007FE040205A
:102A000040200000000070000C0003800040000027
:102A10000000402040207FE0000000000000200077
:102A20004000200000000000001000100010001006
:102A30000010001000000000400000000000000036
:102A4000000002800540054003C0004020003FC058
:102A50000440044003800000000003800440044060
:102A60000640000000000380044024403FC00040B6
:102A700000000380054005400340000000000440C2
:102A80001FC0244024402000000002E005500550F3
:102A90000650042020403FC00440040003C0004012
:102AA0000000044027C0004000000000001000109B
:102AB000041027E00000000020403FC00140070054
:102AC00004C00440204020403FC0004000400000BF
:102AD00007C0040007C0040003C00000044007C092
:102AE0000440040003C00040000003800440044090
:102AF00003800000041007F004500440038000002D
:102B0000000003800440045007F00010044007C098
:102B1000024004000400000000000640054005409B
:102B200004C00000000004001F80044000400000BA
:102B3000040007800040044007C000400400070074
:102B400004C0018006000400060001C0070001C0A7
:102B500006000000044006C0010006C0044000005A
:102B60000410071004E00180060004000000044087
:102B700005C00640044000000000000004007BE0A7
:102B800040200000000000000000FFF000000000F6
:102B9000000040207BE004000000000040008000B6
:102BA0004000200020004000000000000000000065
:102BB00000000000000000000000000000001FCC2A
:102BC000000C000000000000000008003000600061
:102BD0000800300060000000022003FC1E200220DC
:102BE00003FC1E200220000000000E1811043FFF0D
:102BF00010840C78000000000F0010840F3800C013
:102C0000077818840078000000780F8410C411241D
:102C10000E9800E4008400080800680070000000BE
:102C2000000000000000000000000000000007E0BD
:102C30001818200440020000000040022004181868
:102C400007E00000000000000240024001800FF099
:102C500001800240024000000080008000800FF8E8
:102C600000800080008000000001000D000E0000C8
:102C700000000000000000000000008000800080D4
:102C800000800080008000800000000C000C00002C
:102C900000000000000000000000000600180060B6
:102CA0000180060018002000000007F0080810044A
:102CB0001004080807F000000000080408041FFCC6
:102CC000000400040000000000000E0C101410248A
:102CD000104411840E0C000000000C1810041104A4
:102CE000110412880C700000000000E0032004248E
:102CF00008241FFC0024000000001F981084110409
:102D00001104108810700000000007F008881104FA
:102D1000110418880070000000001C00100010FC56
:102D200013001C001000000000000E381144108435
:102D3000108411440E38000000000700088C104475
:102D40001044088807F00000000000000000030C99
:102D5000030C00000000000000000000000101065C
:102D60000000000000000000000000800140022080
:102D70000410080810040000022002200220022093
:102D800002200220022000000000100408080410A5
:102D9000022001400080000000000E001200100C14
:102DA000106C10800F00000003E00C1813E41424D2
:102DB00017C4082807D000000004003C03C41C40CE
:102DC000074000E4001C000410041FFC110411045F
:102DD00011040E880070000003E00C1810041004A9
:102DE000100410081C10000010041FFC1004100434
:102DF0001004080807F0000010041FFC110411045F
:102E000017C410040818000010041FFC110411005E
:102E100017C010000800000003E00C181004100494
:102E200010441C780040000010041FFC1084008037
:102E3000008010841FFC10040000100410041FFC0C
:102E40001004100400000000000300011001100134
:102E50001FFE10001000000010041FFC110403806E
:102E60001464181C1004000010041FFC100400045B
:102E700000040004000C000010041FFC1F0000FCF4
:102E80001F001FFC1004000010041FFC0C040300B2
:102E900000E010181FFC100007F0080810041004D0
:102EA0001004080807F0000010041FFC10841080B4
:102EB000108010800F00000007F008181024102464
:102EC000101C080A07F2000010041FFC1104110076
:102ED00011C011300E0C000400000E1C11041084EF
:102EE000108410441C3800001800100010041FFC4F
:102EF000100410001800000010001FF81004000457
:102F0000000410041FF8100010001E0011E0001C47
:102F1000007013801C0010001FC0103C00E01F0058
:102F200000E0103C1FC000001004180C163401C053
:102F300001C01634180C100410001C00130400FC0F
:102F400013041C00100000000804101C10641084FE
:102F500013041C04101800000000000000007FFE95
:102F60004002400240020000000030000C000380DC
:102F70000060001C0003000000004002400240020C
:102F80007FFE000000000000000000002000400064
:102F9000400040002000000000010001000100018D
:102FA000000100010001000100004000400020007D
:102FB000000000000000000000000098012401440F
:102FC0000144014400FC000410001FFC00880104BF
:102FD00001040088007000000000007000880104F7
:102FE0000104010400880000000000700088010452
:102FF000010411081FFC0004000000F80144014412
:103000000144014400C800000000010401040FFC59
:103010001104110411001800000000D60129012933
:10302000012901C90106000010041FFC00840100F1
:103030000100010400FC000400000104190419FC53
:103040000004000400000000000000030001010172
:10305000190119FE0000000010041FFC00240040AC
:1030600001B4010C010400000000100410041FFC56
:103070000004000400000000010401FC0104010040
:1030800001FC0104010000FC010401FC00840100BA
:103090000100010400FC0004000000F80104010428
:1030A0000104010400F80000010101FF0085010492
:1030B0000104008800700000000000700088010416
:1030C0000104010501FF00010104010401FC008469
:1030D0000104010001800000000000CC0124012453
:1030E000012401240198000000000100010007F8FC
:1030F0000104010400000000010001F800040004C4
:103100000004010801FC0004010001800170000CB2
:10311000001001600180010001F0010C003001C0CD
:103120000030010C01F0010000000104018C00746A
:103130000170018C01040000010101810171000E88
:10314000001801600180010000000184010C0134BD
:1031500001440184010C0000000000000000000098
:1031600001003EFC400240020000000000000000A0
:10317000FFFF0000000000000000400240023EFC93
:1031800001000000000000000000600080008000DE
:103190004000400020002000082008220841FFFED7
:1031A0000880090020002000200220013FFE2000AE
:1031B00020002000200000000200020002000200A7
:1031C00002000200FFFF22002200224022202210E3
:1031D0002208020002000000000100061FF8110092
:1031E0001108110411F810011002FF8410689018E2
:1031F00050641382101F00001008100C10081FF8F4
:10320000101010111012080C0870FF80080208013D
:1032100008020FFC0000000008010802080CFFF083
:10322000080208010FFE000000001FFE1004100439
:1032300010041FFE0000000008200620407E3180A0
:1032400000000FFF084208420842FFFE0842084201
:1032500008420FFF00000000082008C00B00FFFF1D
:10326000090008800101120114C290347008103462
:1032700014C212011101000000003FFC21082108C6
:1032800021083FFC000008000880086008020801CF
:10329000FFFE080008000000000000000FF00820FA
:1032A000082008200820FFFF082008200820082008
:1032B0000FF0000000000000008102810C82788481
:1032C000088808B008C0FF8008C008B008880884D3
:1032D000088200810081000000017FE2400C5FF065
:1032E00040087FE6020104021B84E86808100868B1
:1032F0000F840802080100000200420033FE0004AF
:10330000000822002AFF2AA82AA8FEA82AAA2AA979
:103310002AFE220002000000420246234A225222D4
:1033200063FE42244A244624430400001FF00002A6
:103330000001FFFE00000000010041014102410CBC
:103340007FF0410041004100410041007FFF41000A
:10335000410041000100000000001FFF84204320C5
:10336000107C4C804000493C49244FE45124513C9E
:1033700040017FFF00000000008101020604F9C83F
:10338000103010C81F0400040002FFFA08020402F3
:10339000020201820002000008020802280A2BEA49
:1033A0002AAA2AAA2AAA3FFE4AAA4AAA4AAACBEAD3
:1033B000480A08020802000002000200420033FC32
:1033C00000080914090609FC09080908FF800870AB
:1033D000880C6802080F0000AED580A83FD30040DB
:1033E0008D142002A1C8DA128166D9F1DB30A4A6BF
:1033F000AF0000004C53515F6D795461736B3032F4
:103400000000000064656661756C745461736B0044
:10341000303400080000002080010000280100086E
:103420006C34000880010020083D00008401000881
:10343000011432018210035924F41AAA01897289F5
:103440007F13DB1A1F0801030205DD0817020103C1
:1034500006211B15080302011A61081E0506060154
:0C3460001D081E060505011F0801C00024
:04000005080000ED02
:00000001FF
